:020000040800F2
:10000000B004002001010008FF16000807110008D5
:10001000FD1600089901000885180008000000007E
:1000200000000000000000000000000003170008AE
:10003000BD010008000000000117000805170008B6
:100040001B0100081B0100081B0100081B01000820
:100050001B0100081B0100081B0100081B01000810
:100060001B0100081B0100081B0100081B01000800
:100070001B0100081B0100081B0100081B010008F0
:100080001B0100081B0100081B0100081B010008E0
:100090001B0100081B0100081B0100081B010008D0
:1000A0001B0100081B0100081B0100081B010008C0
:1000B0001B0100081B0100081B0100081B010008B0
:1000C0001B0100081B0100081B0100081B010008A0
:1000D0001B0100081B0100081B0100081B01000890
:1000E0001B0100081B0100081B010008DFF80CD0F1
:1000F00000F040F800480047551A0008B0040020FE
:100100000648804706480047FEE7FEE7FEE7FEE7B1
:10011000FEE7FEE7FEE7FEE7FEE7FEE767170008FB
:10012000ED000008D2B201E000F8012B491EFBD21D
:1001300070470022F6E710B513460A4604461946F2
:10014000FFF7F0FF204610BD30B50B4601460020FA
:100150002022012409E021FA02F59D4205D303FA89
:1001600002F5491B04FA02F52844151EA2F101020A
:10017000F1DC30BD064C074D06E0E06840F00103BD
:1001800094E8070098471034AC42F6D3FFF7B2FF6B
:10019000CC1A0008EC1A0008FEE700F013B80000C3
:1001A000024901220A7048707047000000000020D8
:1001B00000B5A620FFF7F4FF002000BD704772B61F
:1001C000FEE7000070B5044600F0FEF80546601C2E
:1001D00002D004480078044400F0F6F8401BA04226
:1001E000FAD370BD040000202DE9F84FDFF8B89174
:1001F000002409F1040A0AF1040B23460F270BF12E
:10020000040EC9E00125A5402A40AA427DD1674ECF
:10021000D1F804C0ACEB0608B44532D014DCBCF114
:10022000030F3AD009DCBCF1000F2AD0BCF1010F5A
:100230001CD0BCF1020F31D11DE0BCF1110F17D061
:10024000BCF1120F2AD119E0B8F5881F19D006DCCD
:10025000B8F5803F15D0B8F5801F1FD111E0B8F573
:10026000001F0ED0B8F5041F18D10AE0CB6815E0C6
:10027000CB681B1D12E0CB6808330FE0CB680C3352
:100280000CE08B682BB1012B4FF0080303D04561C4
:1002900004E0042302E0056100E00023FF2A01D806
:1002A000064601E000F104064FEA840501D9A5F1F4
:1002B0002005D6F8008007FA05FC28EA0C0803FAA6
:1002C00005F548EA0508C6F800804D68ED0062D5DE
:1002D000374DAE6946F00106AE61AD6924F0030604
:1002E00005F001050095334D06EB050CDCF80850D0
:1002F000A607360F07FA06F825EA0805DFF8B880E2
:10030000404503D14FF0000817E044E0DFF8AC802F
:10031000404502D14FF001080FE0DFF8A4804045CE
:1003200002D14FF0020808E0DFF89880404502D182
:100330004FF0030801E04FF0040808FA06F848EA15
:100340000508CCF808804D68D9F80060ED034D46EB
:1003500001D5164300E096432E604D68DAF8006040
:10036000AD03554601D5164300E096432E604D6817
:10037000DBF80060ED025D4601D5164300E09643D0
:100380002E604D68DEF80060AD02754601D516435B
:1003900000E096432E60641C0D682A46E5407FF419
:1003A00031AFBDE8F88F00000004014000001110DB
:1003B000001002400000014000080140000C014014
:1003C000001001400014014001488068704700009F
:1003D0000400002070B5040025D094F83D000025ED
:1003E00020B984F83C50204600F078FA242084F8A4
:1003F0003D002068016821F001010160206801686A
:1004000041F4004101602068016821F4004101606D
:1004100000F0BCFB4D4A6168914201D84C4900E0B4
:100420004C49884201D2012070BD4B492368B0FB82
:10043000F1F15E6826F03F060E435E60636893420A
:1004400006D94FF4967359434FF47A73B1FBF3F125
:100450002368491C1E6A26F03F0631431962616811
:10046000914210D84900401EB0FBF1F2521CC2F379
:100470000B02042A01D2042022E0B0FBF1F0401C60
:10048000C0F30B001CE0A268F2B301EBC10303EB65
:100490000116431EB3FBF6F35B1C43F480431B05BC
:1004A00049D092B301EBC10202EB0111401EB0FB37
:1004B000F1F0401CC0F30B0040F4804040F40040D9
:1004C0002168CA694CF6FF739A431043C861D4E9A6
:1004D000071001432068026822F0C0021143016046
:1004E000D4E9030101432068826848F2FF339A434C
:1004F00011438160D4E9050108432168CA6822F0EC
:10050000FF021043C86001E00EE016E020680168B9
:1005100041F0010101602564202084F83D0025633D
:1005200084F83E50002070BD01EB4106431EB3FB32
:10053000F6F35B1CB3E70120C2E701EB4101401E6B
:10054000B0FBF1F0401CC0F30B00B7E7A086010040
:1005500080841E0000093D0040420F002DE9FF4F3E
:1005600083B00025DDE910799A4693460446DDF80C
:1005700048800095FFF728FF064694F83D002028A4
:100580007CD11923012285492046009600F0E4FE23
:100590000028F5D194F83C0001286FD0012084F8A0
:1005A0003C0020680168C90703D1016841F00101DE
:1005B00001602068016821F400610160222084F854
:1005C0003D00402084F83E0025646762A4F82A902C
:1005D000608D20857248E062CDE9008653465A4618
:1005E0002046049900F0C0FD00287DD1208DDFF861
:1005F000B491202768B1012814D00228206801682E
:100600001ED041F4806101602068416980690090DA
:10061000B6E02068416981690091016841F4007188
:100620000160ADE02068016821F48061016072B66C
:100630002068416981690091016841F400710AE014
:1006400041F40061016072B62068416981690091DE
:10065000016821F48061016062B691E0032868D8E6
:1006600001280CD0022843464FF00002494620469C
:1006700000960FD000F070FEB0BB10E08BE0324669
:100680004146204600F0E7FE70BB20680069616AC1
:1006900008706CE000F060FE30BB72B634E0206899
:1006A000016821F48061016072B620680069616AA6
:1006B0000870606A401C6062208D401E2085608D3D
:1006C000401E6085384846F2A8110068B0FBF1F082
:1006D000C0EBC00000EB80000090401E009008D0EE
:1006E00020684069C04300E029E040070CD500982D
:1006F000F3E744F8305F6773A573206940F020008A
:10070000206162B625731AE02068016841F4007127
:10071000016020680069616A0870606A401C60625C
:10072000218D491E2185618D491E618562B6216832
:100730001BE032464146204600F08DFE18B10120F4
:1007400007B0BDE8F08F20680069616A0870606AD0
:10075000401C6062218D491E2185618D491E618585
:1007600021684A69D24352070AD409690170606A54
:10077000401C6062208D401E2085608D401E60857B
:10078000208D00287FF46AAF84F83D7084F83E50D5
:1007900084F83C50D4E70220D2E7000002001000A9
:1007A0000000FFFF04000100100000202DE9FF4FB2
:1007B00083B09A46DDE9119793460446DDF8408000
:1007C000FFF702FE054694F83D0020287FD119234B
:1007D000012240492046009500F0BEFD002876D158
:1007E00094F83C00012872D0012084F83C00206875
:1007F0000168C90703D1016841F001010160206867
:10080000016821F400610160212084F83D0040204E
:1008100084F83E0000262664C4F82480A4F82A90B8
:10082000608D20852C48E062CDE9007553465A461C
:100830002046049900F016FD70B930E02A4639468A
:10084000204600F03BFE58B1206C042804D12068FB
:10085000016841F400710160012007B0BDE8F08F2C
:10086000606A216800780861606A401C6062218DBE
:10087000491E89B22185628D521E628522685369A4
:10088000DB435B070BD469B100781061606A401CE0
:100890006062208D401E2085608D401E6085208D09
:1008A0000028CBD12A463946204600F02FFD0028EB
:1008B000CAD154F83D0B016841F400710160202059
:1008C00004F81E09E67766770020C6E7FFE70220F6
:1008D000C3E70000020010000000FFFF10B586B063
:1008E000002100910191029103910068134988420F
:1008F00022D1134CA06940F00800A061A0696946AC
:1009000000F0080004904FF4407000901220019015
:10091000032003900B48FFF767FC0B48416841F048
:10092000E06141F002014160E06940F40010E061E3
:10093000E06900F40010049006B010BD00540040BF
:1009400000100240000C0140000001400248816894
:10095000027811448160704704000020074810B5F8
:10096000016841F010010160032000F067F80020E9
:1009700000F006F800F024F8002010BD002002402E
:1009800070B50D4D04464FF47A712878B1FBF0F044
:100990000A490968B1FBF0F000F0DEFA48B9102C02
:1009A00007D200222146501E00F028F800206C607B
:1009B00070BD012070BD0000040000201000002068
:1009C0000C4808B5816941F001018161816901F03C
:1009D00001010091C16941F08051C161C06900F01D
:1009E000805000900448416821F0E06141F00071BE
:1009F000416008BD0010024000000140F0B40E4B01
:100A00001B680C46C3F30223C3F10705042D00D96C
:100A10000425191D072901D2002300E0DB1E012651
:100A200006FA05F1491E214099409E40761E164067
:100A30003143F0BC00F038BF0CED00E0064900F097
:100A4000070208684FF6FF03184040EA0220034AF5
:100A500010430860704700000CED00E00000FA054C
:100A60002DE9F0470F46050061D0434E306800F095
:100A70000700B84209D2306820F0070038433060E0
:100A8000306800F00700B84251D128683B4C81071C
:100A900012D5400703D5606840F4E06060602878B4
:100AA000000703D5606840F4605060606068A96822
:100AB00020F0F000084360602878C00728D06868FC
:100AC000012810D02168022810D0890700292EDAC9
:100AD000616821F0030101436160FFF775FC804606
:100AE00041F288390DE021688903EFE78901EDE7DC
:100AF000FFF76AFCA0EB0801494502D90320BDE8D5
:100B0000F0876068696800F00C00B0EB810FEFD1EE
:100B1000306800F00700B8420BD9306820F00700B9
:100B200038433060306800F00700B84201D001203F
:100B3000E5E72878400705D56068E96820F4E060BB
:100B4000084360602878000706D56068296920F4AA
:100B5000605040EAC100606000F038F86168084AFF
:100B6000C1F30311515CC84006490860064800689B
:100B7000FFF706FF0020C2E70020024000100240FD
:100B8000B41A00081000002008000020044805499D
:100B900000684968044AC1F30221515CC8407047AB
:100BA0001000002000100240C41A00080448054943
:100BB00000684968044AC1F3C221515CC8407047CB
:100BC0001000002000100240C41A000812A185B0D5
:100BD0000FC98DE80F0014A0144A006804905168F2
:100BE000134801F00C03042B10D0082B0ED1C1F3D5
:100BF0008343C9031DF803000AD5516804AAC1F351
:100C00004041515C0A4A5043B0FBF1F005B07047D7
:100C100008494843FAE700000203040506070809EB
:100C20000A0B0C0D0E0F1010010200000010024004
:100C300000127A0000093D002DE9F84F040070D041
:100C40002078C04DC00749D06868C0F381000128F2
:100C500007D06868C0F38100022809D16868C00322
:100C600006D52868800339D560680028E7D035E0CC
:100C70006068B0F5803F0BD010B1B0F5A02F11D057
:100C8000286820F480302860286820F4802002E062
:100C9000286840F480302860606890B1FFF794FBCA
:100CA00006460AE0286840F480202860F0E700BF8C
:100CB000FFF78AFB801B642873D828688003F7D568
:100CC0000CE0FFF781FB064605E000BFFFF77CFB69
:100CD000801B6428F0D828688003F7D420789A4EC7
:100CE00080074FF001094FF0000839D5686810F00F
:100CF0000C0F07D06868C0F38100022809D168682A
:100D0000C00306D42868800714D52069012808D1BB
:100D100010E02069B0B1C6F80090FFF755FB074618
:100D200005E00AE1FFF750FBC01B0228C4D8286881
:100D30008007F7D52868616920F0F80040EAC10013
:100D400028600DE0C6F80080FFF73EFB074604E090
:100D5000FFF73AFBC01B022823D828688007F7D486
:100D6000207800072CD57948A169D9B1C0F8009046
:100D7000FFF72AFB074604E0FFF726FBC01B02280B
:100D80000FD8686A8007F7D571484FF4FA510068A8
:100D9000B0FBF1F0009000BF0098411E0091FAD224
:100DA0000EE080E0C0F80080FFF70EFB074604E08D
:100DB000FFF70AFBC01B022875D8686A8007F7D4C2
:100DC0002078400760D5E8690027C00008D4E869AA
:100DD00040F08050E861E869012700F08050009001
:100DE0005C480168C90513D40168834641F48071E9
:100DF0000160FFF7E9FA824606E000BFFFF7E4FA78
:100E0000A0EB0A0064284ED8DBF80000C005F5D539
:100E1000E06801280AD008B1052813D0286A20F01C
:100E200001002862286A20F0040002E0286A40F0ED
:100E300001002862E06841F2883B98B1FFF7C4FAEC
:100E400082460BE0286A40F004002862EEE700BF0B
:100E5000FFF7BAFAA0EB0A0159455AD8286A800769
:100E6000F6D50CE0FFF7B0FA824605E0FFF7ACFAE2
:100E7000A0EB0A0159454CD8286A8007F6D41FB167
:100E8000E86920F08050E861E06988B36968C1F3DF
:100E90008101022944D00228C6F8608004D0FFF7FF
:100EA00093FA044638E034E0FFF78EFA074604E090
:100EB000FFF78AFAC01B02282BD828688001F7D4D4
:100EC000206AB0F5803F05D16868A16820F4003041
:100ED00008436860D4E908010843696821F4741183
:100EE00008436860C6F86090FFF76EFA044606E0B3
:100EF00025E000BFFFF768FA001B022809D8286820
:100F00008001F7D51BE000BFFFF75EFA001B022847
:100F100002D90320BDE8F88F28688001F4D40EE0E0
:100F20000128F7D06868226A00F48031914204D128
:100F3000616A00F47010884201D00120EAE70020C5
:100F4000E8E70000001002400000424280044242F4
:100F5000100000200070004010B5401EB0F1807FEE
:100F600001D3012010BD4FF0E02460610F21601714
:100F700000F09AFC0020A06107202061002010BD35
:100F800070B5040004D094F83D00002510B106E0CF
:100F9000012070BD84F83C50204600F023F8242046
:100FA00084F83D002068C16821F40051C1602046EA
:100FB00000F0DAFB2068016921F4904101612068AA
:100FC000416921F02A0141612068C16841F4005162
:100FD000C1602564202084F83D0084F83E00002094
:100FE00070BD000030B585B00024009401940294D7
:100FF000039400681449884223D11448C16941F41C
:101000000031C161C16901F400310491816941F08D
:101010000401816180690E4D00F0040004900420F9
:101020000090022001900320039069462846FFF7B4
:10103000DBF80820CDE90004694628460294FFF752
:10104000D3F805B030BD000000440040001002405D
:10105000000801402DE9F843044690F83D001F4682
:1010600016460D4620284CD1C5B1BEB194F83C00BF
:10107000012846D0012084F83C004FF00008C4F855
:101080004080212084F83D00FFF79EF9A684814628
:10109000E684A068B0F5805F03D004E00120BDE8DD
:1010A000F883206928B12E465FF0000584F83C8063
:1010B0000EE00026FAE78021204600F0B1FBA0B93F
:1010C000AEB116F8010B21684860E08C401EE08448
:1010D000E08C4B464FF0000200970028EBD14FF018
:1010E0004001204600F09CFB30B10320D7E735F8E3
:1010F000020BC0F30800E6E7202084F83D00002042
:10110000CDE70220CBE7FEE701684A69D2435205EA
:101110000FD46FF480624A61002140F8301F202212
:1011200042738173026942F004020261017301207B
:1011300070470020704700001FB500210391202355
:10114000012203A98DE80E001346024604484178A7
:101150000448491CFFF702FA9DF80C0004B010BDCA
:1011600000000020180000202DE9F84F0446006818
:1011700089460B9D01689846174641F480610160DD
:101180002068016841F48071016000954FF0011BF7
:101190000022594620460A9B00F0DEF84FF4007A00
:1011A00040B120680068C00501D5C4F840A0032004
:1011B000BDE8F88F216809F0FE0008612B46284938
:1011C00020460A9A00F0FCF8F0BB2068416980696B
:1011D00000902A4620460A9900F070F940B1206C30
:1011E00004283AD12068016841F40071016034E0BC
:1011F000FEB2B8F1010F09D02168380A08612A4609
:1012000020460A9900F05AF90028E8D120680661C2
:101210002A4620460A9900F051F90028DFD12068BB
:10122000016841F480710160009500225946204612
:101230000A9B00F091F80028B3D1216809F0FF0063
:1012400040F00100086100E007E02B460449204619
:101250000A9A00F0B5F80028AAD00120A8E70000FB
:10126000020001002DE9F843044600680D46DDE95F
:10127000089701689846164641F4807101604B4614
:1012800000224FF001112046009700F065F848B1A8
:1012900020680068C00502D54FF400702064032068
:1012A000BDE8F883216805F0FE0008613B464A4628
:1012B0001549204600F084F888B9206841698069A2
:1012C00000903A464946204600F0F8F848B1206CB4
:1012D000042804D12068016841F4007101600120F4
:1012E000DEE7F5B2B8F1010F09D02168300A0861D4
:1012F0003A464946204600F0E1F80028E7D1206848
:1013000005610020CCE700000200010070B5164620
:101310000D4604460DE02046FFF7F6FE08B1012019
:1013200070BD681C05D0FFF74FF8801BA84207D896
:1013300035B120684069C0434007ECD4002070BD3F
:10134000002044F8300F20216173A073216941F01F
:10135000200121612073E2E72DE9F0471E46904607
:101360000D460446C1F30747DDF8209008E0701CE5
:1013700006D0FFF729F8A0EB0900B0420FD876B1EC
:101380002068012F18D0806925EA00000004000CB5
:1013900014D000214145EAD00020BDE8F0870020AC
:1013A00044F8300F20216173A073216941F02001BE
:1013B000216120730120F0E74069E5E70121E9E7B9
:1013C0002DE9F0479A4691460E46044600254FF017
:1013D0002008C1F3074725E020684069C043400565
:1013E00014D42068016841F40071016021686FF431
:1013F00080604861256384F83D8084F83E50206C0D
:1014000040F00400206484F83C501FE0B9F1FF3F35
:1014100008D0FEF7D9FFA0EB0A0149450CD8B9F175
:10142000000F09D02068012F13D0806926EA000040
:101430000004000C0BD0CFE744F8305F84F80D8037
:10144000A573206940F02000206125730120BDE8CC
:10145000F0874069EAE72DE9F041002590460E4605
:101460000446202717E04069C043C0060CD454F856
:10147000301B6FF01000486144F810596777A5776A
:10148000206A2062257717E0FEF79EFFA0EB080098
:10149000B04208D83EB120684169C9434906E2D448
:1014A0000020BDE8F08144F8305F6773A5732069C0
:1014B00040F02000206125730120F2E770B5164648
:1014C0000D4604460DE02046FFF71EFE08B1012040
:1014D00070BD681C05D0FEF777FF801BA84207D8B7
:1014E00035B120684069C0430006ECD4002070BDCF
:1014F000002044F8300F20216173A073216941F06E
:10150000200121612073E2E71FB5002203928DF8CC
:101510000C102023012203A98DE80E001346024679
:10152000024841780248FFF741F91FBD0000002042
:101530001800002010B50CA000F0A6F9062000F05D
:1015400031F80146B22804D00EA000F09DF9012028
:1015500010BD2221042000F064F80121052000F0D4
:1015600060F8002010BD00004C5452333930205632
:101570004F432053656E736F7220496E69740D0A74
:101580000000000073686F756C64203D2030786245
:10159000322C206275742076616C203D20305825F5
:1015A000640D0A0010B5FFF7C7FDC0B210BD70B5DD
:1015B0000C460546C9B2212000F033F8C4F30721D8
:1015C000222000F02EF8C4F30341232000F029F874
:1015D000E9B2242000F025F8C5F30721252000F00A
:1015E00020F8C5F30341BDE87040262000F019B88B
:1015F00070B53421192000F014F80A21002000F001
:1016000010F81020FFF7CEFF04461120FFF7CAFFA5
:1016100005461220FFF7C6FF000440EA05202043DC
:1016200070BDFFF771BF000000B585B000200190CC
:1016300003901248816941F020018161816901F0C4
:1016400020010491816941F004018161816901F007
:1016500004010491816941F0080181618069694652
:1016600000F0080004904FF40070009001200290F8
:101670000348FEF7B9FD05B000BD000000100240B0
:10168000000801400D4810B50B4901600C4941604C
:101690000021A622C0E902124FF48042C0E90421D1
:1016A0008161C1610162FEF795FE002803D0BDE8AB
:1016B0001040FEF784BD10BD00540040180000200B
:1016C000A08601000C4810B50A4901604FF4E131D1
:1016D0004160002181600C22C160C0E90412816177
:1016E000C161FFF74DFC002803D0BDE81040FEF7B4
:1016F00066BD10BD004400406C000020FEE7FEE720
:1017000070477047FFF722B930B58FB0282168467F
:10171000FEF70FFD14210AA8FEF70BFD01210804B6
:10172000CDE900100024029402250491CDE9075070
:101730004FF4E01009906846FFF77EFA08B172B6E0
:10174000FEE70F20CDE90A054FF48060CDE90C409B
:1017500002210AA80E94FFF783F9002801D072B67F
:10176000FEE70FB030BD704770B5044600680169F0
:10177000E26821F44051114301612169A0680843E6
:10178000616908432168CA6841F20C639A430243C5
:10179000CA6020684169A26921F440711143416126
:1017A0001E492068884202D1FFF700FA01E0FFF7E6
:1017B000EDF900EBC00101EB0012606864218000CC
:1017C000B2FBF0F3B3FBF1F36FF018067343B2FB17
:1017D000F0F5B2FBF0F605EB8305322303EB0515BC
:1017E000B5FBF1F5B6FBF1F605F0F00505EB0615D6
:1017F000B2FBF0F6B2FBF0F0B0FBF1F06FF01802C4
:10180000504306EB800003EB0010B0FBF1F02168C1
:1018100000F00F002844886070BD000000380140CF
:101820002DE9F041984617460E460446069D1DE0F8
:10183000681C1BD02DB1FEF7C7FDA0EB0800A84225
:1018400014D92068C16821F4D071C1602068416951
:1018500021F001014161202084F83D0084F83E0020
:10186000002084F83C000320BDE8F0812068006877
:1018700036EA000004D00020B842D9D00020F3E7B7
:101880000120F9E7FEE700000FB4054B10B503A9EE
:10189000044A029800F028F810BC5DF814FB000020
:1018A0003D1A0008140000200907090E002804DB77
:1018B00000F1E02080F80014704700F00F0000F104
:1018C000E02080F8141D704702E008C8121F08C10C
:1018D000002AFAD170477047002001E001C1121FB1
:1018E000002AFBD1704700002DE9FF4F89B09B46CD
:1018F0000446002506E025280BD05A460B99904750
:10190000641C6D1C20780028F5D10DB02846BDE878
:10191000F08F0027B8460122474900E0074314F83A
:10192000013F203B02FA03F00842F7D120782E282D
:1019300019D114F8010F47F004072A280ED06FF0D0
:101940002F022078A0F1300109290CD808EB88017A
:1019500002EB410100EB0108641CF2E70A98641CE9
:1019600050F8048B0A9020780028CED0642808D044
:10197000692806D075281ED05A460B9990476D1CD1
:1019800058E00A994FF00A0901C90A91002802DAC1
:1019900040422D2102E0390504D52B218DF820107D
:1019A000012103E0F90704D02021F7E78A4608AEB9
:1019B0000DE00021FAE70A994FF00A0901C90A91DE
:1019C000F7E74946FEF7C0FB303106F8011D002855
:1019D000F7D1ADEB060000F12009780701D44FF0F4
:1019E0000108C84502DDA8EB090000E000208046A0
:1019F000002706E008A85A46C05D0B9990476D1C69
:101A00007F1C5745F6DB04E030205A460B9990477F
:101A10006D1CB8F10001A8F10108F5DC05E016F82D
:101A2000010B5A460B9990476D1CB9F10001A9F1C1
:101A30000109F4DC641C65E70928010013B54FF6C1
:101A4000FF73012269460248FFF704FB00981CBDA2
:101A50006C000020FEF782FFFFF756FEFFF7E4FD63
:101A6000FFF710FEFFF72EFEFEF7A2FBFFF762FD69
:101A700018B10AA0FFF708FFFEE71E210520FFF7B7
:101A800096FD4FF4FA7400BFFFF7B2FD014606A0C1
:101A9000FFF7FAFE2046FEF780FBF5E7696E6974F2
:101AA00020657272212121005556203D2025640DAC
:101AB0000A00000000000000000000000102030412
:101AC000060708090000000001020304EC1A0008E0
:101AD0000000002018000000C8180008041B0008BF
:101AE0001800002098040000D8180008000000002A
:101AF0000100000010000000000000000024F400BD
:041B000000000000E1
:04000005080000ED02
:00000001FF
